:020000040800F2
:1000000000100020E90300085711000857110008EC
:100010005711000857110008571100085711000820
:100020005711000857110008571100085711000810
:100030005711000857110008571100085711000800
:1000400057110008571100085711000857110008F0
:1000500057110008571100085711000857110008E0
:100060005711000825030008571100085711000810
:1000700057110008571100085711000857110008C0
:1000800057110008571100085711000857110008B0
:1000900057110008571100085711000857110008A0
:1000A0005711000857110008571100085711000890
:1000B0005711000857110008571100085711000880
:1000C0005711000857110008571100085711000870
:1000D0005711000857110008571100085711000860
:1000E0005711000857110008571100085711000850
:1000F0005711000857110008571100085711000840
:10010000571100085711000857110008571100082F
:10011000571100085711000857110008571100081F
:10012000571100085711000857110008571100080F
:1001300057110008571100085711000857110008FF
:1001400057110008571100085711000857110008EF
:1001500057110008571100085711000857110008DF
:1001600057110008571100085711000857110008CF
:100170000348044B834202D0034B03B11847704736
:10018000181000201810002000000000064B07493E
:10019000C91A891048BF0131491003D0044B0BB173
:1001A00001481847704700BF1810002018100020A1
:1001B0000000000010B5064C237843B9FFF7D8FFC4
:1001C000044B13B10448AFF300800123237010BD2A
:1001D0003C10002000000000B013000808B5054BDB
:1001E0001BB105490548AFF30080BDE80840FFF7A3
:1001F000CDBF00BF0000000018100020B0130008A1
:10020000A3F5803A704700BF174B002B08BF134B74
:100210009D46FFF7F5FF00218B460F461348144A11
:10022000121A00F0CDFF0E4B002B00D098470D4B5B
:10023000002B00D098470020002104000D000D483D
:10024000002802D00C48AFF3008000F045FF2000EA
:10025000290000F09DF800F02DFF00BF000008000D
:100260000000000000000000001000201810002016
:10027000A4100020000000000000000030B589B08C
:100280000121292000F042FC01213A2000F03EFC2F
:10029000012304220821002000F09EFD0023184DB8
:1002A00001220921184601AC00F096FD0FCD0FC4C4
:1002B00095E80700002384E80700124C01A92046B6
:1002C0008DF8043000F08CFE4FF400220E4BC3F882
:1002D00038274FF41022C3F830271422C3F8202700
:1002E0004FF40072E36C43F00403E364074BC3F87C
:1002F00080211A600521204600F028FE09B030BD9B
:100300002012000800C0055000C0035000E100E0CA
:100310000146034A93695B06FCD5014800F04BBFD8
:1003200000C0055008B51448836C5B0710D500F079
:100330003CFF124B0A28124A18700DD11168114B5C
:100340000B4400211160012203F8011C0E4B1A60BE
:1003500004220E4B9A6408BD0828136807D1002BAD
:10036000F6DD0021013B1360064AD154F0E7054950
:10037000C85401331360EBE700C00550A110002002
:10038000301000203D1000203410002000E0055007
:1003900008B5FFF773FF0A4C0A4D0B4E204600F0DC
:1003A000BFFE2B683BB1304600F0C3FE0A20FFF7CA
:1003B000AFFF00232B60204600F0B2FEEEE700BF47
:1003C00040420F00341000203D1000200348044A32
:1003D0000449121A921000F0BFBE00BFDC130008DF
:1003E000DC130008A410002008B500F02FF8FFF778
:1003F000EDFF124B12498B4212D30020114B1249D0
:100400008B4218D3FFF700FF186850F82240586855
:1004100040F82240013298688242F5D30C33EAE773
:100420000022F8E71C6844F8220001325C68A2420E
:10043000F8D30833E4E70022F8E700BFB813000858
:10044000C4130008C4130008C413000810B54FF407
:1004500080414FF0FF30114B114A9A60D3F8882049
:1004600042F47002C3F888200E4A91660E4901F5E5
:10047000005210660D4850660220C3F8D000BFF34A
:100480004F8FBFF36F8F01244FF440330848C0F8FB
:100490008041D36004600B6110BD00BF00ED00E03F
:1004A000000000080090005000800044F7FF370073
:1004B00000E100E0014B1868704700BF0410002005
:1004C000084B1B6F03F00703022B04D0032B05D04E
:1004D000012B05D0FEE7044B18687047034BFBE780
:1004E0000348704700800050041000200C100020CA
:1004F000002D310108B5FFF7E3FF054B1B6FC3F378
:1005000003330133B0FBF3F0024B186008BD00BFAA
:100510000080005000100020014B1868704700BF99
:100520000C10002000487047002D31014FF0B443FB
:100530009868C0F304400C280AD8DFE800F00B09E3
:1005400009090909072119091B1D1F000F487047D8
:10055000002070479B6803F04073B3F1807F11D097
:10056000B3F1007F10D00A4A002B08BF1046704735
:10057000084870470848704708487047084870475F
:10058000084870470848704708487047405DC600F3
:1005900000093D00C0EA210180BA8C010048E80151
:1005A000005A62020024F40080841E0040420F00C2
:1005B000014B1868704700BF0810002038B5124B77
:1005C0000546D3F880300C4603F00303022B0BD012
:1005D000032B0DD0012B0FD1FFF772FF0E2305B1B6
:1005E000286004B1236038BDFFF7A0FF0723F6E7BA
:1005F000FFF760FF0623F2E7044841F2DF1100F045
:10060000BCFD00231846EAE7008000503C120008B9
:1006100038B51A4B0546D3F820010C4600F0070008
:10062000062821D8DFE800F028040C1410181C005C
:10063000FFF740FF052305B1286004B1236038BDF2
:10064000FFF76AFF0323F6E7FFF770FF0723F2E7E0
:10065000FFF768FF0223EEE7FFF72CFF0623EAE728
:10066000FFF75AFF0423E6E7054841F25C2100F05A
:1006700084FD00231846DEE70123DCE700800050FC
:100680003C12000838B5194B0546D3F828310C4602
:1006900003F00703013B052B20D8DFE803F0031329
:1006A0001B0F0B17FFF706FF052305B1286004B1E8
:1006B000236038BDFFF7FEFE0623F6E7FFF736FF9F
:1006C0000723F2E7FFF728FF0323EEE7FFF724FFF6
:1006D0000423EAE7FFF726FF0223E6E7044841F296
:1006E000640100F04AFD00231846DEE70080005058
:1006F0003C120008F7B50027144B0197D3F880414E
:10070000064604F00304022C0D4614D0032C0DD031
:10071000012C14D1394601A8FFF77AFF10240EB13D
:10072000019B336005B12C6003B0F0BDFFF7FEFE06
:1007300007240190F3E7FFF7F5FE0190EFE741F2A0
:10074000B131034800F019FD3C46E8E70080005055
:100750003C12000837B500230193194B0546D3F826
:1007600020320C4603F00703042B1FD8DFE803F008
:1007700025030F141900002101A8FFF783FF12239E
:100780000DB1019A2A6004B1236003B030BDFFF7B8
:10079000CDFE07230190F3E700F0E9FC0A23019066
:1007A000EEE7FFF705FF09230190E9E741F2230196
:1007B000044800F0E2FC0023E2E70123E0E700BF89
:1007C000008000503C12000838B5104B0546D3F8A5
:1007D00040310C4603F00303022B0BD0032B0DD04A
:1007E000012B0FD100F0C3FC0A2305B1286004B12E
:1007F000236038BDFFF7DCFE0923F6E700F0BAFC02
:100800000C23F2E701230020EFE700BF0080005037
:1008100037B500230193184B0546D3F860320C46D8
:1008200003F00703013B032B1FD8DFE803F0020EA0
:100830001914002101A8FFF7EBFE10230DB1019A56
:100840002A6004B1236003B030BD002101A8FFF786
:10085000BBFF1123F2E7FFF769FE07230190EDE7E5
:10086000FFF760FE02230190E8E741F2C801034868
:1008700000F083FC0023E1E7008000503C120008F8
:1008800037B500230193184B0546D3F894320C4634
:1008900003F00703013B032B1FD8DFE803F0020E30
:1008A0001914002101A8FFF7B3FE10230DB1019A1E
:1008B0002A6004B1236003B030BD002101A8FFF716
:1008C00083FF1123F2E7FFF731FE07230190EDE7E5
:1008D000FFF728FE02230190E8E741F2FB010348FD
:1008E00000F04BFC0023E1E7008000503C120008C0
:1008F00073B500240F4B0194D3F87032064603F011
:100900000303012B0D4607D0022B11D041F2261113
:10091000094800F032FC04E0214601A8FFF754FF2B
:1009200011240EB1019B336005B12C6002B070BD83
:100930001524F6E7008000503C12000838B5164B2D
:100940000546D3F800020C4600F00700042819D829
:10095000DFE800F020030B0F130000F008FC0A236F
:1009600005B1286004B1236038BDFFF721FE0923DB
:10097000F6E700F0FFFB0C23F2E7FFF7BBFD0F23C8
:10098000800AEDE7054841F26F4100F0F6FB0023D5
:100990001846E5E70123E3E7008000503C12000819
:1009A00038B5164B0546D3F808020C4600F0070090
:1009B000042819D8DFE800F020030B0F130000F023
:1009C000D6FB0A2305B1286004B1236038BDFFF7C8
:1009D000EFFD0923F6E700F0CDFB0C23F2E7FFF76C
:1009E00089FD0F23800AEDE7054841F2A74100F099
:1009F000C4FB00231846E5E70123E3E7008000502D
:100A00003C12000838B5104B0546D3F840320C466E
:100A100003F00303022B0BD0032B0DD0012B0FD1BE
:100A200000F0A5FB0A2305B1286004B1236038BD9E
:100A3000FFF7BEFD0923F6E700F09CFB0C23F2E76D
:100A400001230020EFE700BF0080005038B5104BB5
:100A50000546D3F860310C4603F00303022B0BD09C
:100A6000032B0DD0012B0FD100F081FB0A2305B120
:100A7000286004B1236038BDFFF79AFD0923F6E72B
:100A800000F078FB0C23F2E701230020EFE700BF22
:100A90000080005010B5B0F5207F2ED009D8B0F5F9
:100AA000007F24D003D868B1B0F5C07F0AD00024FD
:100AB0001BE0B0F5607FFAD1124BD3F88040C4F34D
:100AC000011412E00F4B1C6F230B13F00E0FC4F335
:100AD00003340AD0072C08D00F2C06D0032C04D0E6
:100AE00040F28521084800F048FB601C10BD054B12
:100AF000D3F89040C4F30464F7E7024B1C6FC4F3CF
:100B00008024F2E7008000503C12000838B5430909
:100B100004460D460ED140F22F310D4800F02DFB5A
:100B2000002304F01F0485B103F580530122A24085
:100B30001A6038BD012B04D0022B04D040F23D31A5
:100B4000EBE7044BEDE7044BEBE703F50053EDE770
:100B50003C120008648000506880005030B585B0B9
:100B6000002180280446CDE9001100F09F8035D88F
:100B70005E2846D85E2844D8DFE800F09E43434311
:100B80004343434343434343434343434343434335
:100B90004343434343434343434343439EAB9EAB9F
:100BA000BBBBBBBBBBABC550DB7450ABABAB4343B8
:100BB000434343434343ABABAB7CE5AB434343438A
:100BC000434343434343434343BB9E9E9EE05050B5
:100BD000EA8B61C04343434343939E00B0F5B06F3B
:100BE00000F0918030D8B0F5207F72D00FD8B0F5EA
:100BF000C07F61D0B0F5007F61D0B0F5807F00F09C
:100C0000878040F29441554800F0B7FA51E0B0F5C2
:100C1000607F69D00DD8B0F5407FF2D1FFF76AFC54
:100C200004464FF42070FFF735FFB4FBF0F464087E
:100C300058E0B0F5806F5CD0B0F5A06FE1D1002135
:100C40006846FFF787FD34E0B0F5106F76D016D810
:100C5000B0F5E06F77D00AD8B0F5C06F69D0B0F5C5
:100C6000D06FCED100216846FFF768FE21E0B0F5D5
:100C7000F06FC6D100216846FFF7E8FE19E0B0F535
:100C8000406F3BD00AD8B0F5206F61D0B0F5286F27
:100C9000B7D100216846FFF72BFE0AE0B0F5486F98
:100CA000AFD100216846FFF7EBFD02E0FFF708FC3B
:100CB0000090009805B030BDFFF71CFCF8E7FFF787
:100CC000FFFB05462046FFF7E5FEB5FBF0F5009576
:100CD000EFE7FFF70FFC04464FF42070FFF7DAFE52
:100CE000B4FBF0F40094E4E701A8FFF767FC019D72
:100CF000E8E700216846FFF78BFCDAE70021684649
:100D0000FFF7C0FCD5E700216846FFF7F3FCD0E70A
:100D10004FF0E02302911B695B0705D5FFF7EAFB63
:100D20000290029B0093C4E703A902A8FFF74CFDC1
:100D3000F7E700216846FFF747FDBAE7002168465C
:100D4000FFF72EFEB5E700216846FFF75BFEB0E730
:100D500000216846FFF75CFDABE700BF3C120008CE
:100D600038B5032804460D4605D8094B33F8103032
:100D7000CB40DB0704D440F22D41064800F0FDF9DA
:100D8000302301225C43044BAA401A5138BD00BFF6
:100D90004C1300089612000840D0035038B50328C1
:100DA00004460D4605D8094B33F81030CB40DB071D
:100DB00004D440F2FE31064800F0DFF9302301226E
:100DC0005C43044BAA401A5138BD00BF4C130008C5
:100DD0009612000840E003502DE9F0410328044634
:100DE0000D461746984605D81D4B33F81030CB40BA
:100DF000DB0704D44FF4B0711A4800F0BEF937B1E4
:100E000029462046B8F1000F20D0FFF7A9FF0F2197
:100E1000072D04EB440688BFA5F108034FEA061628
:100E2000114895BFAB009B0004360C3607FA03F25D
:100E30009940304400F0AAF97FB929462046B8F11C
:100E4000000F06D0BDE8F041FFF78ABFFFF7A6FF0D
:100E5000DDE7BDE8F041FFF7A1BFBDE8F08100BFCD
:100E60004C130008F112000830C00350F8B50746D3
:100E70000C461D4616464AB94FF4A171314800F0A0
:100E80007CF924B1402D09D1062328E021B94FF483
:100E90002070FFF763FE0446402D42D0402D09D854
:100EA0007DB1202D17D040F28911BDE8F8402548CA
:100EB00000F063B9602DF6D1B6EB940F3CD8042353
:100EC0000DE0B6EB141F04D94FF4BA711D4800F0C1
:100ED00054F9102303E0B6EBD40F1CD808235E436B
:100EE000730803EB4413B3FBF6F3174E203BB6EB4A
:100EF000C30F4FEAC30404D24FF4D071114800F07D
:100F00003CF9BB68344023F06003BB60BB681D4301
:100F1000BD60FC61F8BD40F279110A4800F02DF97E
:100F2000DCE70623B4FBF3F3B342ADD24FF4BF7159
:100F3000044800F022F9A7E740F28311014800F0CD
:100F40001CF9BCE754130008F8FF7F0038B50C4BC0
:100F5000044698420D4604D04FF43371094800F01E
:100F60000CF9012204F580535A60EB43934003F0DF
:100F70000A036361656115B904F50054626038BD08
:100F800000C005505413000810B5124B0446984297
:100F900004D040F24241104800F0EFF8012104F57E
:100FA0008053596040F6AA6341F205026361002351
:100FB0000A48A360E365E26004F500522361E3613F
:100FC000E36490640348A365844204BF23656365BA
:100FD000516010BD00C0055054130008FFFF010010
:100FE00070B5304B044698420D4604D040F2FD21C6
:100FF0002D4800F0C2F82046FFF7C6FF012304F594
:1010000080567360AB7C1BB1A36843F08043A36040
:10101000EB7C5BB1234B9C4202BF2A7DA3F51033CE
:10102000C3F8C821E36D43F08003E3652A8A6B7B34
:1010300020461343EA891343E3602B7BD5E9011271
:10104000FFF714FF6B7D1BB1A36843F48033A360EB
:10105000AB7D1BB1A36843F40043A360EB7D2A7E04
:101060001B07120502F4E00203F0E0431343A365FB
:101070006B7E9A1E012A4FF0020209D80B49032BFE
:10108000C1F8202709D10423F3652B78636170BD73
:101090000749012BC1F82027F4E7042204F5005387
:1010A000DA65F2E700C005505413000800D0035081
:1010B00000E0035008B5064B044613B10021AFF31E
:1010C0000080044B1B6803B19847204600F056F897
:1010D000000000003810002070B50D4D00260D4CAA
:1010E000641BA410A64209D10B4D00260B4C00F046
:1010F00077F8641BA410A64205D170BD55F8043BD7
:1011000001369847EEE755F8043B01369847F2E779
:1011100010100020101000201010002014100020CB
:1011200082B00190019B5A1E0192002BFAD102B0AD
:10113000704738B500240546284600F049F8A0421B
:1011400000D838BD285DFFF7E3F84FF47A70FFF759
:10115000E7FF0134F0E7FEE710B53AB1002350F89D
:10116000234041F8234001339A42F8D110BD4FF497
:10117000004070474FF47A707047FEE7FEE7EFF3E8
:10118000108072B6704700B962B6704770B50546F8
:1011900014460E46FFF7F3FF2B685C4034405C407A
:1011A0002C60BDE87040FFF7EEBF83691B06FCD5DD
:1011B000406AC0B2704783695B06FCD5C163704763
:1011C00002440346934200D1704703F8011BF9E73C
:1011D000034613F8012B002AFBD1181A0138704777
:1011E000F8B500BFF8BC08BC9E467047F8B500BF14
:1011F000F8BC08BC9E4670470000000000000000DC
:1012000000000000000000000000000000000000DE
:1012100000000000000000000000000000000000CE
:10122000050000000000000000C2010000050000F1
:10123000001000000000000000000000433A2F539F
:10124000696C69636F6E4C6162732F53696D706C6A
:10125000696369747953747564696F2F76352F6487
:101260006576656C6F7065722F73646B732F67653D
:10127000636B6F5F73646B5F322F706C6174666F4A
:10128000726D2F656D6C69622F7372632F656D5F70
:10129000636D752E6300633A5C73696C69636F6E8E
:1012A0006C6162735C73696D706C69636974797386
:1012B000747564696F5C76355C646576656C6F70B7
:1012C00065725C73646B735C6765636B6F5F73649B
:1012D0006B5F325C706C6174666F726D5C656D6CB7
:1012E00069625C696E635C656D5F6770696F2E68CB
:1012F00000433A2F53696C69636F6E4C6162732FC0
:1013000053696D706C696369747953747564696F3E
:101310002F76352F646576656C6F7065722F7364F8
:101320006B732F6765636B6F5F73646B5F322F70D6
:101330006C6174666F726D2F656D6C69622F73726C
:10134000632F656D5F6770696F2E6300FF033F0059
:10135000FF033F00433A2F53696C69636F6E4C6122
:1013600062732F53696D706C696369747953747516
:1013700064696F2F76352F646576656C6F70657262
:101380002F73646B732F6765636B6F5F73646B5F41
:10139000322F706C6174666F726D2F656D6C69624F
:1013A0002F7372632F656D5F75736172742E6300A6
:0813B00050EEFF7F0100000078
:0C13B800C4130008001000200600000014
:1013C400C0EA2101C0EA210100800000C0175302D5
:0813D400DD010008B50100086D
:04000005080003E903
:00000001FF
