S00D00004555534152542E73333713
S3150800000000100020ED030008AF140008AF14000824
S31508000010AF140008AF140008AF140008AF140008A6
S31508000020AF140008AF140008AF140008AF14000896
S31508000030AF140008AF140008AF140008AF14000886
S31508000040AF140008AF140008AF140008AF14000876
S31508000050AF140008AF140008AF140008AF14000866
S31508000060AF140008AF140008AF140008C503000851
S31508000070AB14000815030008AF140008AF140008F5
S31508000080AF140008AF140008AF140008AF14000836
S31508000090AF140008C1050008AF140008AF14000823
S315080000A0AF140008AF140008AF140008AF14000816
S315080000B0AF140008AF140008AF140008AF14000806
S315080000C0AF140008AF140008AF140008AF140008F6
S315080000D0AF140008AF140008AF140008AF140008E6
S315080000E0AF140008AF140008AF140008AF140008D6
S315080000F0AF140008AF140008AF140008AF140008C6
S31508000100AF140008AF140008AF140008AF140008B5
S31508000110AF140008AF140008AF140008AF140008A5
S31508000120AF140008AF140008AF140008AF14000895
S31508000130AF140008AF140008AF140008AF14000885
S31508000140AF140008AF140008AF140008AF14000875
S31508000150AF140008AF140008AF140008AF14000865
S31508000160AF140008AF140008AF140008AF14000855
S315080001700348044B834202D0034B03B11847704728
S31508000180181000201810002000000000064B074930
S31508000190C91A891048BF0131491003D0044B0BB165
S315080001A001481847704700BF181000201810002093
S315080001B00000000010B5064C237843B9FFF7D8FFB6
S315080001C0044B13B10448AFF300800123237010BD1C
S315080001D0D411002000000000F817000808B5054BE8
S315080001E01BB105490548AFF30080BDE80840FFF795
S315080001F0CDBF00BF0000000018100020F817000847
S31508000200A3F5803A704700BF174B002B08BF134B66
S315080002109D46FFF7F5FF00218B460F461348144A03
S31508000220121A01F0DEF90E4B002B00D098470D4B41
S31508000230002B00D098470020002104000D000D482F
S31508000240002802D00C48AFF3008001F0EFF8200038
S31508000250290000F099F801F0D7F800BF000008005F
S315080002600000000000000000001000201810002008
S3150800027040120020000000000000000030B589B0E0
S315080002806C46012157201E4D00F07CFC01213A20C6
S3150800029000F078FC0FCD0FC495E80F00002584E820
S315080002A00F00184C694620468DF8005000F0F8FFFC
S315080002B0012304221946022001F05CF802212B468C
S315080002C00122084601F056F80F4B104AC3F8CC2411
S315080002D04FF00212C3F8C4241422C3F8B42404222B
S315080002E004F580531A654FF40052094BC3F8802170
S315080002F01A600521204600F099FD09B030BD00BFFF
S315080003006016000800000A5000C0035002000100F1
S3150800031000E100E008B5124801F001F9114B0A287E
S31508000320114A18700BD100231168136001220F4877
S3150800033043540F4B1A6004220E4BDA6408BD082892
S31508000340136807D1002BF6DD0021013B1360074A2D
S31508000350D154F0E70549C85401331360EBE700BFF1
S3150800036000000A503912002030100020D511002054
S315080003703410002000200A50024B9A6C5206FCD515
S315080003805864704700000A5008B5FFF777FF0A4C13
S315080003900A4D0B4E204601F06DF82B683BB13046EE
S315080003A001F071F80A20FFF7E7FF00232B602046CB
S315080003B001F060F8EEE700BF40420F00341000205D
S315080003C0D5110020014801F0D2B800BF381000202E
S315080003D00348044A0449121A921001F069B800BF8A
S315080003E024180008241800084012002008B500F058
S315080003F02FF8FFF7EDFF124B12498B4212D300205C
S31508000400114B12498B4218D3FFF7FEFE186850F8B5
S315080004102240586840F82240013298688242F5D353
S315080004200C33EAE70022F8E71C6844F82200013298
S315080004305C68A242F8D30833E4E70022F8E700BF75
S31508000440001800080C1800080C1800080C180008FA
S315080004504FF480414FF0FF30114B124A10B59A60A5
S31508000460D3F8882042F47002C3F888200E4A9166B1
S315080004700E4901F5005210660D4850660220C3F871
S31508000480D000BFF34F8FBFF36F8F01244FF4403373
S315080004900848C0F88041D36004600B6110BD00BFF6
S315080004A000ED00E0000000080090005000800044C5
S315080004B0F7FF370000E100E0014B1868704700BFFE
S315080004C004100020084B1B6F03F00703022B04D00F
S315080004D0032B05D0012B05D0FEE7044B186870479F
S315080004E0034BFBE7034870470080005004100020C8
S315080004F00C100020002D310108B5FFF7E3FF054B6E
S315080005001B6FC3F303330133B0FBF3F0024B1860E0
S3150800051008BD00BF0080005000100020014B18687D
S31508000520704700BF0C10002000487047002D3101AD
S315080005304FF0B4439868C0F304400C280AD8DFE8A3
S3150800054000F00B0909090909072119091B1D1F00D4
S315080005500F487047002070479B6803F04073B3F15B
S31508000560807F11D0B3F1007F10D00A4A002B08BF54
S31508000570104670470848704708487047084870474B
S315080005800848704708487047084870470848704741
S31508000590405DC60000093D00C0EA210180BA8C0111
S315080005A00048E801005A62020024F40080841E0014
S315080005B040420F00014B1868704700BF0810002022
S315080005C0184B2DE9F0411F6D5B6D1F4000D5FEE706
S315080005D001260025144CDFF85880374218D02368C6
S315080005E0C8F85060A3B1A168284601316268A160C5
S315080005F09847637B012B0BD150B90C4B03EB451382
S315080006001A7B60F341021A731A7F60F341021A7764
S315080006100135082D4FEA460604F11004DDD1BDE880
S31508000620F08100BF00000450501100205010002037
S315080006300020045038B5124B0546D3F880300C46D6
S3150800064003F00303022B0BD0032B0DD0012B0FD184
S31508000650FFF738FF0E2305B1286004B1236038BDC3
S31508000660FFF766FF0723F6E7FFF726FF0623F2E7FD
S31508000670044841F2DF1100F02CFF00231846EAE790
S31508000680008000508016000838B51A4B0546D3F886
S3150800069020010C4600F00700062821D8DFE800F004
S315080006A028040C1410181C00FFF706FF052305B1D3
S315080006B0286004B1236038BDFFF730FF0323F6E74F
S315080006C0FFF736FF0723F2E7FFF72EFF0223EEE7D1
S315080006D0FFF7F2FE0623EAE7FFF720FF0423E6E723
S315080006E0054841F25C2100F0F4FE00231846DEE7D7
S315080006F00123DCE7008000508016000838B5194B46
S315080007000546D3F828310C4603F00703013B052BB1
S3150800071020D8DFE803F003131B0F0B17FFF7CCFEF7
S31508000720052305B1286004B1236038BDFFF7C4FE70
S315080007300623F6E7FFF7FCFE0723F2E7FFF7EEFED0
S315080007400323EEE7FFF7EAFE0423EAE7FFF7ECFEEA
S315080007500223E6E7044841F2640100F0BAFE0023EA
S315080007601846DEE70080005080160008F7B5002717
S31508000770144B0197D3F88041064604F00304022C73
S315080007800D4614D0032C0DD0012C14D1394601A8DE
S31508000790FFF77AFF10240EB1019B336005B12C6078
S315080007A003B0F0BDFFF7C4FE07240190F3E7FFF797
S315080007B0BBFE0190EFE741F2B131034800F089FE34
S315080007C03C46E8E70080005080160008002337B54D
S315080007D00193194B0546D3F820320C4603F007035C
S315080007E0042B1FD8DFE803F025030F141900002196
S315080007F001A8FFF783FF12230DB1019A2A6004B1FD
S31508000800236003B030BDFFF793FE07230190F3E79B
S3150800081000F059FE0A230190EEE7FFF7CBFE092305
S315080008200190E9E741F22301044800F052FE002353
S31508000830E2E70123E0E700BF0080005080160008C9
S3150800084038B5104B0546D3F840310C4603F0030380
S31508000850022B0BD0032B0DD0012B0FD100F033FE4A
S315080008600A2305B1286004B1236038BDFFF7A2FE4C
S315080008700923F6E700F02AFE0C23F2E701230020FD
S31508000880EFE700BF00800050002337B50193184BEF
S315080008900546D3F860320C4603F00703013B032BE9
S315080008A01FD8DFE803F0020E1914002101A8FFF78C
S315080008B0EBFE10230DB1019A2A6004B1236003B040
S315080008C030BD002101A8FFF7BBFF1123F2E7FFF7B0
S315080008D02FFE07230190EDE7FFF726FE022301907E
S315080008E0E8E741F2C801034800F0F3FD0023E1E719
S315080008F00080005080160008002337B50193184B76
S315080009000546D3F894320C4603F00703013B032B44
S315080009101FD8DFE803F0020E1914002101A8FFF71B
S31508000920B3FE10230DB1019A2A6004B1236003B007
S3150800093030BD002101A8FFF783FF1123F2E7FFF777
S31508000940F7FD07230190EDE7FFF7EEFD022301907F
S31508000950E8E741F2FB01034800F0BBFD0023E1E7AD
S31508000960008000508016000873B500240F4B0194D0
S31508000970D3F87032064603F00303012B0D4607D061
S31508000980022B11D041F22611094800F0A2FD04E01D
S31508000990214601A8FFF754FF11240EB1019B3360CD
S315080009A005B12C6002B070BD1524F6E70080005032
S315080009B08016000838B5164B0546D3F800020C46D3
S315080009C000F00700042819D8DFE800F020030B0F11
S315080009D0130000F078FD0A2305B1286004B12360EE
S315080009E038BDFFF7E7FD0923F6E700F06FFD0C2396
S315080009F0F2E7FFF781FD0F23800AEDE7054841F28C
S31508000A006F4100F066FD00231846E5E70123E3E79A
S31508000A10008000508016000838B5164B0546D3F8F6
S31508000A2008020C4600F00700042819D8DFE800F091
S31508000A3020030B0F130000F046FD0A2305B12860BA
S31508000A4004B1236038BDFFF7B5FD0923F6E700F0CA
S31508000A503DFD0C23F2E7FFF74FFD0F23800AEDE774
S31508000A60054841F2A74100F034FD00231846E5E7A2
S31508000A700123E3E7008000508016000838B5104BC4
S31508000A800546D3F840320C4603F00303022B0BD07D
S31508000A90032B0DD0012B0FD100F015FD0A2305B14C
S31508000AA0286004B1236038BDFFF784FD0923F6E703
S31508000AB000F00CFD0C23F2E701230020EFE700BF4E
S31508000AC00080005038B5104B0546D3F860310C4607
S31508000AD003F00303022B0BD0032B0DD0012B0FD1F0
S31508000AE000F0F1FC0A2305B1286004B1236038BD83
S31508000AF0FFF760FD0923F6E700F0E8FC0C23F2E7B0
S31508000B0001230020EFE700BF00800050B0F5207FEA
S31508000B1010B52ED009D8B0F5007F24D003D868B117
S31508000B20B0F5C07F0AD000241BE0B0F5607FFAD18B
S31508000B30124BD3F88040C4F3011412E00F4B1C6F1C
S31508000B40230B13F00E0FC4F303340AD0072C08D076
S31508000B500F2C06D0032C04D040F28521084800F05B
S31508000B60B8FC601C10BD054BD3F89040C4F3046470
S31508000B70F7E7024B1C6FC4F38024F2E700800050AD
S31508000B808016000838B5430904460D460ED140F2D2
S31508000B902F310D4800F09DFC002304F01F0485B199
S31508000BA003F580530122A2401A6038BD012B04D0F8
S31508000BB0022B04D040F23D31EBE7044BEDE7044B42
S31508000BC0EBE703F50053EDE7801600086480005054
S31508000BD068800050002130B5802885B00446CDE9EC
S31508000BE0001100F09F8035D85E2846D85E2844D884
S31508000BF0DFE800F09E4343434343434343434343B1
S31508000C0043434343434343434343434343434343A6
S31508000C10434343439EAB9EABBBBBBBBBBBABC550C1
S31508000C20DB7450ABABAB4343434343434343ABABA8
S31508000C30AB7CE5AB434343434343434343434343CB
S31508000C4043BB9E9E9EE05050EA8B61C0434343439C
S31508000C5043939E00B0F5B06F00F0918030D8B0F5A0
S31508000C60207F72D00FD8B0F5C07F61D0B0F5007F75
S31508000C7061D0B0F5807F00F0878040F294415548F6
S31508000C8000F027FC51E0B0F5607F69D00DD8B0F5CB
S31508000C90407FF2D1FFF730FC04464FF42070FFF78F
S31508000CA035FFB4FBF0F4640858E0B0F5806F5CD00B
S31508000CB0B0F5A06FE1D100216846FFF787FD34E063
S31508000CC0B0F5106F76D016D8B0F5E06F77D00AD8A1
S31508000CD0B0F5C06F69D0B0F5D06FCED100216846A7
S31508000CE0FFF768FE21E0B0F5F06FC6D1002168462F
S31508000CF0FFF7E8FE19E0B0F5406F3BD00AD8B0F52B
S31508000D00206F61D0B0F5286FB7D100216846FFF78C
S31508000D102BFE0AE0B0F5486FAFD100216846FFF711
S31508000D20EBFD02E0FFF7CEFB0090009805B030BD62
S31508000D30FFF7E2FBF8E7FFF7C5FB05462046FFF796
S31508000D40E5FEB5FBF0F50095EFE7FFF7D5FB0446A2
S31508000D504FF42070FFF7DAFEB4FBF0F40094E4E7F2
S31508000D6001A8FFF767FC019DE8E700216846FFF741
S31508000D708BFCDAE700216846FFF7C0FCD5E70021BF
S31508000D806846FFF7F3FCD0E74FF0E02302911B69B2
S31508000D905B0705D5FFF7B0FB0290029B0093C4E7FB
S31508000DA003A902A8FFF74CFDF7E700216846FFF7FD
S31508000DB047FDBAE700216846FFF72EFEB5E7002192
S31508000DC06846FFF75BFEB0E700216846FFF75CFD63
S31508000DD0ABE700BF8016000810B500F086FB0423B9
S31508000DE000F5805100F500520B6113610B61136128
S31508000DF00B6113610B611361202341F20201036148
S31508000E000023C360836041614FF4A0218361836539
S31508000E1041620549C36103628362C3624363036532
S31508000E20D164036310BD00BFFF3F0D0338B5174BF0
S31508000E30044698420D4607D0154B984204D04FF405
S31508000E40B371144800F045FB25B92046BDE8384083
S31508000E5000F04BBB012204F580535A6040F6FF713F
S31508000E60204605F00F0200F03CFBA263782100F053
S31508000E7038FB05F001036A0748BF43F00203A26C7A
S31508000E8002F003029A42FAD138BD00BF0000015BA6
S31508000E9000000A50DA160008F8B505460C4616464C
S31508000EA022B94FF409716B4800F013FB6A4B9D4257
S31508000EB002D19CB956240DE0684B9D4247D040F2BA
S31508000EC02721644800F005FB44B940F276316148B1
S31508000ED000F0FFFA2046FFF77DFE0446AB68D80708
S31508000EE045D5B44204D240F231215A4800F0F1FA0D
S31508000EF0B4FBF6F46F68013CFF2C07F0010704D930
S31508000F0040F23921534800F0E4FA24064FB3282169
S31508000F10284600F0E6FAAB6C99071CD1AB6CDA07E9
S31508000F201BD4AE6C16F0020619D140F24621494888
S31508000F3000F0CFFA284600F0D8FA2B69314623F09C
S31508000F407F4323432B61BDE8F840FFF76FBF002CB2
S31508000F50C4D15724BEE70526ECE70926EAE70626A4
S31508000F60E8E72B6923F07F4323432B61F8BD6B68C1
S31508000F70012B04D040F25921364800F0AAFAAB6D8D
S31508000F80DB07AB6848BF760003F0E003402B42D08E
S31508000F9009D893B1202B1AD040F29B21BDE8F8401E
S31508000FA02C4800F096BA602B42D0802BF4D106EB81
S31508000FB04603A34247D801230DE0B6EB141F04D914
S31508000FC040F28121234800F084FA102303E0B6EBAF
S31508000FD0D40F1AD8082373436401B4FBF3F4204FE3
S31508000FE0203CB7EBC40F4FEAC40604D240F2A62150
S31508000FF0184800F06EFA28463E40012100F071FAC2
S315080010002E63BDE8F84000F06CBA40F2862111481C
S3150800101000F05FFADEE70623B4FBF3F3B34201D32D
S315080010200623D8E740F28B210A4800F052FAF7E780
S31508001030B6EB940F01D80423CDE74FF42471054885
S3150800104000F047FAF7E740F29521024800F041FA26
S31508001050B1E700BFDA1600080000015B00000A507D
S31508001060F8FF7F002DE9F0419846436804460E468E
S3150800107017461BB140F6FF7100F033FA2046FFF71A
S31508001080ABFEF189737B62690B43318A22F44C52B9
S315080010900B4322F00F0213436361A168337E327B50
S315080010A021F0804121F0E2011A430A4371690A439B
S315080010B0A260B2681AB9A26842F00042A260F0695A
S315080010C0002874D0857A027A6D04A16845EA8255AB
S315080010D06C4A0A401543828802F4C0421543427896
S315080010E045EA8205427B45EAC205827B45EA021546
S315080010F0827845EA8225A560D0E90421E5680A4395
S31508001100614929400A43817942EA8122C17942EA42
S315080011104122E26002785D49012A14D1E26842F070
S315080011200402E2608C4200F09180594A94420CBF56
S3150800113001224FF0FF32520102F1A04242F29441DD
S3150800114002F5703214E0032A7AD1E26842F004020A
S31508001150E2608C4278D04E4A94420CBF01224FF08E
S31508001160FF3241F29441520102F1A04202F5703277
S3150800117002255550427A04F580518A621AB1E2680E
S3150800118042F40062E260C27A5AB1E26842F400426E
S31508001190E2603E4A94425BD1027B3E4902F00F026E
S315080011A04A67626AC17B22F003020A4362623FB160
S315080011B097F8202004F58050002A53D001220262B5
S315080011C0B8F1000F27D004F5805113B14FF400434E
S315080011D08B652E4BB8F822009C4298F821304ED0E9
S315080011E02B4A94420DD10122112B34BF0127022725
S315080011F0294DB0F5006FAF5494BF01270227274D3C
S31508001200AF54A26D034322F4F95222F01E0213438F
S31508001210A36501238B6505212046FFF707FEB26803
S315080012201AB120467168FFF737FE20463178FFF776
S31508001230FDFDA36CDB4313F4405FFAD1BDE8F081F2
S31508001240023A012A85D96DE700228AE7002272E769
S315080012500F4A944201BF027B0E4902F00F02C1F801
S3150800126080209EE7E16997F8222097F8215021F01F
S3150800127009012A430A4342F00102C261A0E700229B
S31508001280B2E700BFE39BBDFFFFF9F0870000015BF3
S3150800129000000A50009003503C1200203A12002029
S315080012A0134B70B5984205460C4606D0114B98422A
S315080012B003D07021104800F00CF91CB972210E48B1
S315080012C000F007F9237B802B03D176210A4800F02A
S315080012D000F9637B032B03D97921074800F0F9F855
S315080012E0002321462846BDE870401A46FFF7BABED5
S315080012F00000015B00000A50DA160008032838B51A
S3150800130004460D4605D8094B33F81030CB40DB07A9
S3150800131004D440F22D41064800F0DBF830230122C0
S315080013205C43044BAA401A5138BD00BFEE170008AB
S315080013303717000840D00350032838B504460D4631
S3150800134005D8094B33F81030CB40DB0704D440F2FC
S31508001350FE31064800F0BDF8302301225C43044BF9
S31508001360AA401A5138BD00BFEE1700083717000803
S3150800137040E0035003282DE9F04104460D46174680
S31508001380984605D81D4B33F81030CB40DB0704D4FC
S315080013904FF4B0711A4800F09CF837B12946204638
S315080013A0B8F1000F20D0FFF7A9FF0F21072D04EB96
S315080013B0440688BFA5F108034FEA0616114895BFEB
S315080013C0AB009B0004360C3607FA03F2994030440A
S315080013D000F0BEF87FB929462046B8F1000F06D0BE
S315080013E0BDE8F041FFF78ABFFFF7A6FFDDE7BDE8D6
S315080013F0F041FFF7A1BFBDE8F08100BFEE17000876
S315080014009217000830C0035008B5064B044613B1BE
S315080014100021AFF30080044B1B6803B198472046B0
S3150800142000F0DEF800000000D011002070B50D4D68
S3150800143000260D4C641BA410A64209D10B4D0026AC
S315080014400B4C00F0EDF8641BA410A64205D170BD44
S3150800145055F8043B01369847EEE755F8043B013644
S315080014609847F2E7101000201010002010100020F6
S315080014701410002082B00190019B5A1E0192002B85
S31508001480FAD102B0704738B505460024284600F060
S31508001490B0F8A04200D838BD285DFEF76DFF4FF4BE
S315080014A07A70FFF7E7FF0134F0E7FEF78BBFFEE738
S315080014B010B53AB1002350F8234041F823400133D0
S315080014C09A42F8D110BD4FF4004070474FF47A7035
S315080014D07047FEE7EFF3108072B6704700B962B640
S315080014E07047436D0B42FCD1704708B54368DA076D
S315080014F014D58368DB0702D50369D90707D50A23FC
S3150800150050218363FFF7EDFF836C9A07FCD1012214
S3150800151000F500535A6043689B07FCD408BDC368AE
S3150800152013F0F04F05D1836C1906FCD5C06BC0B219
S315080015307047C36BC26C920601D4D8B27047836CED
S315080015401B06FCD5F2E7836C5B06FCD54164704745
S3150800155070B5054614460E46FFF7BCFF2B685C407F
S3150800156034405C402C60BDE87040FFF7B7BF70B5EB
S315080015700468A06BC36C5B0708D5042500F5005307
S31508001580DD64227E1AB91D650123237670BD627E4D
S31508001590002AFBD094F82D2002B30026132184F8E4
S315080015A03560FFF7D0FFA36B03F580521565DB6B3B
S315080015B0DBB2112B0DD1012384F834303022237A83
S315080015C0534303F1A04303F58023DB6E013B2363FA
S315080015D0DCE7132BDAD184F83460EFE71D65D5E72D
S315080015E0FEE702440346934200D1704703F8011B05
S315080015F0F9E7034613F8012B002AFBD1181A01381C
S315080016007047000000000000000000000000000015
S3150800161000000000000000000000000000000000BC
S31508001620F8B500BFF8BC08BC9E467047F8B500BFC1
S31508001630F8BC08BC9E467047000000000000000089
S31508001640000000000000000000000000000000008C
S31508001650000000000000000000000000000000007C
S31508001660050000000000000000C2010000020000A2
S31508001670001000000000000000000000000000004C
S31508001680433A2F53696C69636F6E4C6162732F53CB
S31508001690696D706C696369747953747564696F2FC1
S315080016A076352F646576656C6F7065722F73646B1B
S315080016B0732F6765636B6F5F73646B5F322F706C34
S315080016C06174666F726D2F656D6C69622F737263D4
S315080016D02F656D5F636D752E6300433A2F53696CF2
S315080016E069636F6E4C6162732F53696D706C6963C1
S315080016F069747953747564696F2F76352F646576C6
S31508001700656C6F7065722F73646B732F6765636B97
S315080017106F5F73646B5F322F706C6174666F726D86
S315080017202F656D6C69622F7372632F656D5F6575C2
S31508001730736172742E6300633A5C73696C69636FD4
S315080017406E6C6162735C73696D706C6963697479D8
S3150800175073747564696F5C76355C646576656C6F01
S315080017607065725C73646B735C6765636B6F5F73DC
S31508001770646B5F325C706C6174666F726D5C656D0C
S315080017806C69625C696E635C656D5F6770696F2E14
S315080017906800433A2F53696C69636F6E4C616273D4
S315080017A02F53696D706C69636974795374756469CC
S315080017B06F2F76352F646576656C6F7065722F733B
S315080017C0646B732F6765636B6F5F73646B5F322F30
S315080017D0706C6174666F726D2F656D6C69622F73BC
S315080017E072632F656D5F6770696F2E630000FF0374
S30D080017F03F00FF033F00000063
S30D080017F808EAFF7F010000006A
S311080018000C18000800100020060000006C
S3150800180CC0EA2101C0EA210100800000C01753027A
S30D0800181CDD010008B501000812
S705080003ED02
